{
  "contractName": "FarmToken",
  "abi": [
    {
      "inputs": [
        {
          "internalType": "address",
          "name": "_token",
          "type": "address"
        }
      ],
      "stateMutability": "nonpayable",
      "type": "constructor"
    },
    {
      "anonymous": false,
      "inputs": [
        {
          "indexed": true,
          "internalType": "address",
          "name": "owner",
          "type": "address"
        },
        {
          "indexed": true,
          "internalType": "address",
          "name": "spender",
          "type": "address"
        },
        {
          "indexed": false,
          "internalType": "uint256",
          "name": "value",
          "type": "uint256"
        }
      ],
      "name": "Approval",
      "type": "event"
    },
    {
      "anonymous": false,
      "inputs": [
        {
          "indexed": true,
          "internalType": "address",
          "name": "from",
          "type": "address"
        },
        {
          "indexed": true,
          "internalType": "address",
          "name": "to",
          "type": "address"
        },
        {
          "indexed": false,
          "internalType": "uint256",
          "name": "value",
          "type": "uint256"
        }
      ],
      "name": "Transfer",
      "type": "event"
    },
    {
      "inputs": [
        {
          "internalType": "address",
          "name": "owner",
          "type": "address"
        },
        {
          "internalType": "address",
          "name": "spender",
          "type": "address"
        }
      ],
      "name": "allowance",
      "outputs": [
        {
          "internalType": "uint256",
          "name": "",
          "type": "uint256"
        }
      ],
      "stateMutability": "view",
      "type": "function",
      "constant": true
    },
    {
      "inputs": [
        {
          "internalType": "address",
          "name": "spender",
          "type": "address"
        },
        {
          "internalType": "uint256",
          "name": "amount",
          "type": "uint256"
        }
      ],
      "name": "approve",
      "outputs": [
        {
          "internalType": "bool",
          "name": "",
          "type": "bool"
        }
      ],
      "stateMutability": "nonpayable",
      "type": "function"
    },
    {
      "inputs": [
        {
          "internalType": "address",
          "name": "account",
          "type": "address"
        }
      ],
      "name": "balanceOf",
      "outputs": [
        {
          "internalType": "uint256",
          "name": "",
          "type": "uint256"
        }
      ],
      "stateMutability": "view",
      "type": "function",
      "constant": true
    },
    {
      "inputs": [],
      "name": "decimals",
      "outputs": [
        {
          "internalType": "uint8",
          "name": "",
          "type": "uint8"
        }
      ],
      "stateMutability": "view",
      "type": "function",
      "constant": true
    },
    {
      "inputs": [
        {
          "internalType": "address",
          "name": "spender",
          "type": "address"
        },
        {
          "internalType": "uint256",
          "name": "subtractedValue",
          "type": "uint256"
        }
      ],
      "name": "decreaseAllowance",
      "outputs": [
        {
          "internalType": "bool",
          "name": "",
          "type": "bool"
        }
      ],
      "stateMutability": "nonpayable",
      "type": "function"
    },
    {
      "inputs": [
        {
          "internalType": "address",
          "name": "spender",
          "type": "address"
        },
        {
          "internalType": "uint256",
          "name": "addedValue",
          "type": "uint256"
        }
      ],
      "name": "increaseAllowance",
      "outputs": [
        {
          "internalType": "bool",
          "name": "",
          "type": "bool"
        }
      ],
      "stateMutability": "nonpayable",
      "type": "function"
    },
    {
      "inputs": [],
      "name": "name",
      "outputs": [
        {
          "internalType": "string",
          "name": "",
          "type": "string"
        }
      ],
      "stateMutability": "view",
      "type": "function",
      "constant": true
    },
    {
      "inputs": [],
      "name": "symbol",
      "outputs": [
        {
          "internalType": "string",
          "name": "",
          "type": "string"
        }
      ],
      "stateMutability": "view",
      "type": "function",
      "constant": true
    },
    {
      "inputs": [],
      "name": "token",
      "outputs": [
        {
          "internalType": "contract IERC20",
          "name": "",
          "type": "address"
        }
      ],
      "stateMutability": "view",
      "type": "function",
      "constant": true
    },
    {
      "inputs": [],
      "name": "totalSupply",
      "outputs": [
        {
          "internalType": "uint256",
          "name": "",
          "type": "uint256"
        }
      ],
      "stateMutability": "view",
      "type": "function",
      "constant": true
    },
    {
      "inputs": [
        {
          "internalType": "address",
          "name": "recipient",
          "type": "address"
        },
        {
          "internalType": "uint256",
          "name": "amount",
          "type": "uint256"
        }
      ],
      "name": "transfer",
      "outputs": [
        {
          "internalType": "bool",
          "name": "",
          "type": "bool"
        }
      ],
      "stateMutability": "nonpayable",
      "type": "function"
    },
    {
      "inputs": [
        {
          "internalType": "address",
          "name": "sender",
          "type": "address"
        },
        {
          "internalType": "address",
          "name": "recipient",
          "type": "address"
        },
        {
          "internalType": "uint256",
          "name": "amount",
          "type": "uint256"
        }
      ],
      "name": "transferFrom",
      "outputs": [
        {
          "internalType": "bool",
          "name": "",
          "type": "bool"
        }
      ],
      "stateMutability": "nonpayable",
      "type": "function"
    },
    {
      "inputs": [],
      "name": "balance",
      "outputs": [
        {
          "internalType": "uint256",
          "name": "",
          "type": "uint256"
        }
      ],
      "stateMutability": "view",
      "type": "function",
      "constant": true
    },
    {
      "inputs": [
        {
          "internalType": "uint256",
          "name": "_amount",
          "type": "uint256"
        }
      ],
      "name": "deposit",
      "outputs": [],
      "stateMutability": "nonpayable",
      "type": "function"
    },
    {
      "inputs": [
        {
          "internalType": "uint256",
          "name": "_amount",
          "type": "uint256"
        }
      ],
      "name": "withdraw",
      "outputs": [],
      "stateMutability": "nonpayable",
      "type": "function"
    }
  ],
  "bytecode": "0x60806040523480156200001157600080fd5b5060405162002557380380620025578339818101604052810190620000379190620001e6565b6040518060400160405280600981526020017f4661726d546f6b656e00000000000000000000000000000000000000000000008152506040518060400160405280600381526020017f46524d00000000000000000000000000000000000000000000000000000000008152508160039080519060200190620000bb9291906200011f565b508060049080519060200190620000d49291906200011f565b50505080600560006101000a81548173ffffffffffffffffffffffffffffffffffffffff021916908373ffffffffffffffffffffffffffffffffffffffff16021790555050620002c5565b8280546200012d9062000246565b90600052602060002090601f0160209004810192826200015157600085556200019d565b82601f106200016c57805160ff19168380011785556200019d565b828001600101855582156200019d579182015b828111156200019c5782518255916020019190600101906200017f565b5b509050620001ac9190620001b0565b5090565b5b80821115620001cb576000816000905550600101620001b1565b5090565b600081519050620001e081620002ab565b92915050565b600060208284031215620001f957600080fd5b60006200020984828501620001cf565b91505092915050565b60006200021f8262000226565b9050919050565b600073ffffffffffffffffffffffffffffffffffffffff82169050919050565b600060028204905060018216806200025f57607f821691505b602082108114156200027657620002756200027c565b5b50919050565b7f4e487b7100000000000000000000000000000000000000000000000000000000600052602260045260246000fd5b620002b68162000212565b8114620002c257600080fd5b50565b61228280620002d56000396000f3fe608060405234801561001057600080fd5b50600436106100f55760003560e01c806370a0823111610097578063b69ef8a811610066578063b69ef8a8146102ae578063b6b55f25146102cc578063dd62ed3e146102e8578063fc0c546a14610318576100f5565b806370a082311461020057806395d89b4114610230578063a457c2d71461024e578063a9059cbb1461027e576100f5565b806323b872dd116100d357806323b872dd146101665780632e1a7d4d14610196578063313ce567146101b257806339509351146101d0576100f5565b806306fdde03146100fa578063095ea7b31461011857806318160ddd14610148575b600080fd5b610102610336565b60405161010f9190611dc6565b60405180910390f35b610132600480360381019061012d9190611630565b6103c8565b60405161013f9190611d90565b60405180910390f35b6101506103e6565b60405161015d9190611fc8565b60405180910390f35b610180600480360381019061017b91906115e1565b6103f0565b60405161018d9190611d90565b60405180910390f35b6101b060048036038101906101ab9190611695565b6104f1565b005b6101ba61058e565b6040516101c79190611fe3565b60405180910390f35b6101ea60048036038101906101e59190611630565b610597565b6040516101f79190611d90565b60405180910390f35b61021a6004803603810190610215919061157c565b610643565b6040516102279190611fc8565b60405180910390f35b61023861068b565b6040516102459190611dc6565b60405180910390f35b61026860048036038101906102639190611630565b61071d565b6040516102759190611d90565b60405180910390f35b61029860048036038101906102939190611630565b610811565b6040516102a59190611d90565b60405180910390f35b6102b661082f565b6040516102c39190611fc8565b60405180910390f35b6102e660048036038101906102e19190611695565b6108e1565b005b61030260048036038101906102fd91906115a5565b610980565b60405161030f9190611fc8565b60405180910390f35b610320610a07565b60405161032d9190611dab565b60405180910390f35b60606003805461034590612166565b80601f016020809104026020016040519081016040528092919081815260200182805461037190612166565b80156103be5780601f10610393576101008083540402835291602001916103be565b820191906000526020600020905b8154815290600101906020018083116103a157829003601f168201915b5050505050905090565b60006103dc6103d5610a2d565b8484610a35565b6001905092915050565b6000600254905090565b60006103fd848484610c00565b6000600160008673ffffffffffffffffffffffffffffffffffffffff1673ffffffffffffffffffffffffffffffffffffffff1681526020019081526020016000206000610448610a2d565b73ffffffffffffffffffffffffffffffffffffffff1673ffffffffffffffffffffffffffffffffffffffff168152602001908152602001600020549050828110156104c8576040517f08c379a00000000000000000000000000000000000000000000000000000000081526004016104bf90611e88565b60405180910390fd5b6104e5856104d4610a2d565b85846104e09190612086565b610a35565b60019150509392505050565b60008111610534576040517f08c379a000000000000000000000000000000000000000000000000000000000815260040161052b90611f48565b60405180910390fd5b61053e3382610e7f565b61058b3382600560009054906101000a900473ffffffffffffffffffffffffffffffffffffffff1673ffffffffffffffffffffffffffffffffffffffff166110539092919063ffffffff16565b50565b60006012905090565b60006106396105a4610a2d565b8484600160006105b2610a2d565b73ffffffffffffffffffffffffffffffffffffffff1673ffffffffffffffffffffffffffffffffffffffff16815260200190815260200160002060008873ffffffffffffffffffffffffffffffffffffffff1673ffffffffffffffffffffffffffffffffffffffff168152602001908152602001600020546106349190612030565b610a35565b6001905092915050565b60008060008373ffffffffffffffffffffffffffffffffffffffff1673ffffffffffffffffffffffffffffffffffffffff168152602001908152602001600020549050919050565b60606004805461069a90612166565b80601f01602080910402602001604051908101604052809291908181526020018280546106c690612166565b80156107135780601f106106e857610100808354040283529160200191610713565b820191906000526020600020905b8154815290600101906020018083116106f657829003601f168201915b5050505050905090565b6000806001600061072c610a2d565b73ffffffffffffffffffffffffffffffffffffffff1673ffffffffffffffffffffffffffffffffffffffff16815260200190815260200160002060008573ffffffffffffffffffffffffffffffffffffffff1673ffffffffffffffffffffffffffffffffffffffff168152602001908152602001600020549050828110156107e9576040517f08c379a00000000000000000000000000000000000000000000000000000000081526004016107e090611f88565b60405180910390fd5b6108066107f4610a2d565b8585846108019190612086565b610a35565b600191505092915050565b600061082561081e610a2d565b8484610c00565b6001905092915050565b6000600560009054906101000a900473ffffffffffffffffffffffffffffffffffffffff1673ffffffffffffffffffffffffffffffffffffffff166370a08231306040518263ffffffff1660e01b815260040161088c9190611d15565b60206040518083038186803b1580156108a457600080fd5b505afa1580156108b8573d6000803e3d6000fd5b505050506040513d601f19601f820116820180604052508101906108dc91906116be565b905090565b60008111610924576040517f08c379a000000000000000000000000000000000000000000000000000000000815260040161091b90611f28565b60405180910390fd5b610973333083600560009054906101000a900473ffffffffffffffffffffffffffffffffffffffff1673ffffffffffffffffffffffffffffffffffffffff166110d9909392919063ffffffff16565b61097d3382611162565b50565b6000600160008473ffffffffffffffffffffffffffffffffffffffff1673ffffffffffffffffffffffffffffffffffffffff16815260200190815260200160002060008373ffffffffffffffffffffffffffffffffffffffff1673ffffffffffffffffffffffffffffffffffffffff16815260200190815260200160002054905092915050565b600560009054906101000a900473ffffffffffffffffffffffffffffffffffffffff1681565b600033905090565b600073ffffffffffffffffffffffffffffffffffffffff168373ffffffffffffffffffffffffffffffffffffffff161415610aa5576040517f08c379a0000000000000000000000000000000000000000000000000000000008152600401610a9c90611ee8565b60405180910390fd5b600073ffffffffffffffffffffffffffffffffffffffff168273ffffffffffffffffffffffffffffffffffffffff161415610b15576040517f08c379a0000000000000000000000000000000000000000000000000000000008152600401610b0c90611e28565b60405180910390fd5b80600160008573ffffffffffffffffffffffffffffffffffffffff1673ffffffffffffffffffffffffffffffffffffffff16815260200190815260200160002060008473ffffffffffffffffffffffffffffffffffffffff1673ffffffffffffffffffffffffffffffffffffffff168152602001908152602001600020819055508173ffffffffffffffffffffffffffffffffffffffff168373ffffffffffffffffffffffffffffffffffffffff167f8c5be1e5ebec7d5bd14f71427d1e84f3dd0314c0f7b2291e5b200ac8c7c3b92583604051610bf39190611fc8565b60405180910390a3505050565b600073ffffffffffffffffffffffffffffffffffffffff168373ffffffffffffffffffffffffffffffffffffffff161415610c70576040517f08c379a0000000000000000000000000000000000000000000000000000000008152600401610c6790611ec8565b60405180910390fd5b600073ffffffffffffffffffffffffffffffffffffffff168273ffffffffffffffffffffffffffffffffffffffff161415610ce0576040517f08c379a0000000000000000000000000000000000000000000000000000000008152600401610cd790611de8565b60405180910390fd5b610ceb8383836112b6565b60008060008573ffffffffffffffffffffffffffffffffffffffff1673ffffffffffffffffffffffffffffffffffffffff16815260200190815260200160002054905081811015610d71576040517f08c379a0000000000000000000000000000000000000000000000000000000008152600401610d6890611e48565b60405180910390fd5b8181610d7d9190612086565b6000808673ffffffffffffffffffffffffffffffffffffffff1673ffffffffffffffffffffffffffffffffffffffff16815260200190815260200160002081905550816000808573ffffffffffffffffffffffffffffffffffffffff1673ffffffffffffffffffffffffffffffffffffffff1681526020019081526020016000206000828254610e0d9190612030565b925050819055508273ffffffffffffffffffffffffffffffffffffffff168473ffffffffffffffffffffffffffffffffffffffff167fddf252ad1be2c89b69c2b068fc378daa952ba7f163c4a11628f55a4df523b3ef84604051610e719190611fc8565b60405180910390a350505050565b600073ffffffffffffffffffffffffffffffffffffffff168273ffffffffffffffffffffffffffffffffffffffff161415610eef576040517f08c379a0000000000000000000000000000000000000000000000000000000008152600401610ee690611ea8565b60405180910390fd5b610efb826000836112b6565b60008060008473ffffffffffffffffffffffffffffffffffffffff1673ffffffffffffffffffffffffffffffffffffffff16815260200190815260200160002054905081811015610f81576040517f08c379a0000000000000000000000000000000000000000000000000000000008152600401610f7890611e08565b60405180910390fd5b8181610f8d9190612086565b6000808573ffffffffffffffffffffffffffffffffffffffff1673ffffffffffffffffffffffffffffffffffffffff168152602001908152602001600020819055508160026000828254610fe19190612086565b92505081905550600073ffffffffffffffffffffffffffffffffffffffff168373ffffffffffffffffffffffffffffffffffffffff167fddf252ad1be2c89b69c2b068fc378daa952ba7f163c4a11628f55a4df523b3ef846040516110469190611fc8565b60405180910390a3505050565b6110d48363a9059cbb60e01b8484604051602401611072929190611d67565b604051602081830303815290604052907bffffffffffffffffffffffffffffffffffffffffffffffffffffffff19166020820180517bffffffffffffffffffffffffffffffffffffffffffffffffffffffff83818316178352505050506112bb565b505050565b61115c846323b872dd60e01b8585856040516024016110fa93929190611d30565b604051602081830303815290604052907bffffffffffffffffffffffffffffffffffffffffffffffffffffffff19166020820180517bffffffffffffffffffffffffffffffffffffffffffffffffffffffff83818316178352505050506112bb565b50505050565b600073ffffffffffffffffffffffffffffffffffffffff168273ffffffffffffffffffffffffffffffffffffffff1614156111d2576040517f08c379a00000000000000000000000000000000000000000000000000000000081526004016111c990611fa8565b60405180910390fd5b6111de600083836112b6565b80600260008282546111f09190612030565b92505081905550806000808473ffffffffffffffffffffffffffffffffffffffff1673ffffffffffffffffffffffffffffffffffffffff16815260200190815260200160002060008282546112459190612030565b925050819055508173ffffffffffffffffffffffffffffffffffffffff16600073ffffffffffffffffffffffffffffffffffffffff167fddf252ad1be2c89b69c2b068fc378daa952ba7f163c4a11628f55a4df523b3ef836040516112aa9190611fc8565b60405180910390a35050565b505050565b600061131d826040518060400160405280602081526020017f5361666545524332303a206c6f772d6c6576656c2063616c6c206661696c65648152508573ffffffffffffffffffffffffffffffffffffffff166113829092919063ffffffff16565b905060008151111561137d578080602001905181019061133d919061166c565b61137c576040517f08c379a000000000000000000000000000000000000000000000000000000000815260040161137390611f68565b60405180910390fd5b5b505050565b6060611391848460008561139a565b90509392505050565b6060824710156113df576040517f08c379a00000000000000000000000000000000000000000000000000000000081526004016113d690611e68565b60405180910390fd5b6113e8856114ae565b611427576040517f08c379a000000000000000000000000000000000000000000000000000000000815260040161141e90611f08565b60405180910390fd5b6000808673ffffffffffffffffffffffffffffffffffffffff1685876040516114509190611cfe565b60006040518083038185875af1925050503d806000811461148d576040519150601f19603f3d011682016040523d82523d6000602084013e611492565b606091505b50915091506114a28282866114c1565b92505050949350505050565b600080823b905060008111915050919050565b606083156114d157829050611521565b6000835111156114e45782518084602001fd5b816040517f08c379a00000000000000000000000000000000000000000000000000000000081526004016115189190611dc6565b60405180910390fd5b9392505050565b60008135905061153781612207565b92915050565b60008151905061154c8161221e565b92915050565b60008135905061156181612235565b92915050565b60008151905061157681612235565b92915050565b60006020828403121561158e57600080fd5b600061159c84828501611528565b91505092915050565b600080604083850312156115b857600080fd5b60006115c685828601611528565b92505060206115d785828601611528565b9150509250929050565b6000806000606084860312156115f657600080fd5b600061160486828701611528565b935050602061161586828701611528565b925050604061162686828701611552565b9150509250925092565b6000806040838503121561164357600080fd5b600061165185828601611528565b925050602061166285828601611552565b9150509250929050565b60006020828403121561167e57600080fd5b600061168c8482850161153d565b91505092915050565b6000602082840312156116a757600080fd5b60006116b584828501611552565b91505092915050565b6000602082840312156116d057600080fd5b60006116de84828501611567565b91505092915050565b6116f0816120ba565b82525050565b6116ff816120cc565b82525050565b600061171082611ffe565b61171a8185612014565b935061172a818560208601612133565b80840191505092915050565b61173f8161210f565b82525050565b600061175082612009565b61175a818561201f565b935061176a818560208601612133565b611773816121f6565b840191505092915050565b600061178b60238361201f565b91507f45524332303a207472616e7366657220746f20746865207a65726f206164647260008301527f65737300000000000000000000000000000000000000000000000000000000006020830152604082019050919050565b60006117f160228361201f565b91507f45524332303a206275726e20616d6f756e7420657863656564732062616c616e60008301527f63650000000000000000000000000000000000000000000000000000000000006020830152604082019050919050565b600061185760228361201f565b91507f45524332303a20617070726f766520746f20746865207a65726f20616464726560008301527f73730000000000000000000000000000000000000000000000000000000000006020830152604082019050919050565b60006118bd60268361201f565b91507f45524332303a207472616e7366657220616d6f756e742065786365656473206260008301527f616c616e636500000000000000000000000000000000000000000000000000006020830152604082019050919050565b600061192360268361201f565b91507f416464726573733a20696e73756666696369656e742062616c616e636520666f60008301527f722063616c6c00000000000000000000000000000000000000000000000000006020830152604082019050919050565b600061198960288361201f565b91507f45524332303a207472616e7366657220616d6f756e742065786365656473206160008301527f6c6c6f77616e63650000000000000000000000000000000000000000000000006020830152604082019050919050565b60006119ef60218361201f565b91507f45524332303a206275726e2066726f6d20746865207a65726f2061646472657360008301527f73000000000000000000000000000000000000000000000000000000000000006020830152604082019050919050565b6000611a5560258361201f565b91507f45524332303a207472616e736665722066726f6d20746865207a65726f20616460008301527f64726573730000000000000000000000000000000000000000000000000000006020830152604082019050919050565b6000611abb60248361201f565b91507f45524332303a20617070726f76652066726f6d20746865207a65726f2061646460008301527f72657373000000000000000000000000000000000000000000000000000000006020830152604082019050919050565b6000611b21601d8361201f565b91507f416464726573733a2063616c6c20746f206e6f6e2d636f6e74726163740000006000830152602082019050919050565b6000611b6160128361201f565b91507f616d6f756e742063616e6e6f74206265203000000000000000000000000000006000830152602082019050919050565b6000611ba160048361201f565b91507f68616861000000000000000000000000000000000000000000000000000000006000830152602082019050919050565b6000611be1602a8361201f565b91507f5361666545524332303a204552433230206f7065726174696f6e20646964206e60008301527f6f742073756363656564000000000000000000000000000000000000000000006020830152604082019050919050565b6000611c4760258361201f565b91507f45524332303a2064656372656173656420616c6c6f77616e63652062656c6f7760008301527f207a65726f0000000000000000000000000000000000000000000000000000006020830152604082019050919050565b6000611cad601f8361201f565b91507f45524332303a206d696e7420746f20746865207a65726f2061646472657373006000830152602082019050919050565b611ce9816120f8565b82525050565b611cf881612102565b82525050565b6000611d0a8284611705565b915081905092915050565b6000602082019050611d2a60008301846116e7565b92915050565b6000606082019050611d4560008301866116e7565b611d5260208301856116e7565b611d5f6040830184611ce0565b949350505050565b6000604082019050611d7c60008301856116e7565b611d896020830184611ce0565b9392505050565b6000602082019050611da560008301846116f6565b92915050565b6000602082019050611dc06000830184611736565b92915050565b60006020820190508181036000830152611de08184611745565b905092915050565b60006020820190508181036000830152611e018161177e565b9050919050565b60006020820190508181036000830152611e21816117e4565b9050919050565b60006020820190508181036000830152611e418161184a565b9050919050565b60006020820190508181036000830152611e61816118b0565b9050919050565b60006020820190508181036000830152611e8181611916565b9050919050565b60006020820190508181036000830152611ea18161197c565b9050919050565b60006020820190508181036000830152611ec1816119e2565b9050919050565b60006020820190508181036000830152611ee181611a48565b9050919050565b60006020820190508181036000830152611f0181611aae565b9050919050565b60006020820190508181036000830152611f2181611b14565b9050919050565b60006020820190508181036000830152611f4181611b54565b9050919050565b60006020820190508181036000830152611f6181611b94565b9050919050565b60006020820190508181036000830152611f8181611bd4565b9050919050565b60006020820190508181036000830152611fa181611c3a565b9050919050565b60006020820190508181036000830152611fc181611ca0565b9050919050565b6000602082019050611fdd6000830184611ce0565b92915050565b6000602082019050611ff86000830184611cef565b92915050565b600081519050919050565b600081519050919050565b600081905092915050565b600082825260208201905092915050565b600061203b826120f8565b9150612046836120f8565b9250827fffffffffffffffffffffffffffffffffffffffffffffffffffffffffffffffff0382111561207b5761207a612198565b5b828201905092915050565b6000612091826120f8565b915061209c836120f8565b9250828210156120af576120ae612198565b5b828203905092915050565b60006120c5826120d8565b9050919050565b60008115159050919050565b600073ffffffffffffffffffffffffffffffffffffffff82169050919050565b6000819050919050565b600060ff82169050919050565b600061211a82612121565b9050919050565b600061212c826120d8565b9050919050565b60005b83811015612151578082015181840152602081019050612136565b83811115612160576000848401525b50505050565b6000600282049050600182168061217e57607f821691505b60208210811415612192576121916121c7565b5b50919050565b7f4e487b7100000000000000000000000000000000000000000000000000000000600052601160045260246000fd5b7f4e487b7100000000000000000000000000000000000000000000000000000000600052602260045260246000fd5b6000601f19601f8301169050919050565b612210816120ba565b811461221b57600080fd5b50565b612227816120cc565b811461223257600080fd5b50565b61223e816120f8565b811461224957600080fd5b5056fea2646970667358221220ea1f6cc6135b38efac67834f4734370926814c5a83298ec26874b53b8a6e567f64736f6c63430008000033",
  "immutableReferences": {},
  "source": "// SPDX-License-Identifier: MIT\r\npragma solidity ^0.8.0;\r\n\r\nimport \"@openzeppelin/contracts/token/ERC20/IERC20.sol\";\r\nimport \"@openzeppelin/contracts/utils/Address.sol\";\r\nimport \"@openzeppelin/contracts/token/ERC20/utils/SafeERC20.sol\";\r\nimport \"@openzeppelin/contracts/token/ERC20/ERC20.sol\";\r\n\r\ncontract FarmToken is ERC20 {\r\n    using Address for address;\r\n    using SafeERC20 for IERC20;\r\n\r\n    IERC20 public token;\r\n\r\n    constructor(address _token)\r\n        public\r\n        ERC20(\"FarmToken\", \"FRM\")\r\n    {\r\n        token = IERC20(_token);\r\n    }\r\n\r\n    function balance() public view returns (uint256) {\r\n        return token.balanceOf(address(this));\r\n    }\r\n\r\n    function deposit(uint256 _amount) public {\r\n        // Amount must be greater than zero\r\n        require(_amount > 0, \"amount cannot be 0\");\r\n\r\n        // Transfer MyToken to smart contract\r\n        token.safeTransferFrom(msg.sender, address(this), _amount);\r\n\r\n        // Mint FarmToken to msg sender\r\n        _mint(msg.sender, _amount);\r\n    }\r\n\r\n    function withdraw(uint256 _amount) public {\r\n        // burn amount must not exceed balance\r\n        require(_amount > 0, \"haha\");\r\n\r\n        // Burn FarmTokens from msg sender\r\n        _burn(msg.sender, _amount);\r\n\r\n        // Transfer MyTokens from this smart contract to msg sender\r\n        token.safeTransfer(msg.sender, _amount);\r\n    }\r\n\r\n}",
  "sourcePath": "C:/Users/user/.projects/bsckenya_token/contracts/FarmToken.sol",
  "compiler": {
    "name": "solc",
    "version": "0.8.0+commit.c7dfd78e.Emscripten.clang"
  },
  "schemaVersion": "3.4.0",
  "updatedAt": "2021-04-30T21:26:26.616Z",
  "networkType": "ethereum",
  "devdoc": {
    "kind": "dev",
    "methods": {
      "allowance(address,address)": {
        "details": "See {IERC20-allowance}."
      },
      "approve(address,uint256)": {
        "details": "See {IERC20-approve}. Requirements: - `spender` cannot be the zero address."
      },
      "balanceOf(address)": {
        "details": "See {IERC20-balanceOf}."
      },
      "decimals()": {
        "details": "Returns the number of decimals used to get its user representation. For example, if `decimals` equals `2`, a balance of `505` tokens should be displayed to a user as `5,05` (`505 / 10 ** 2`). Tokens usually opt for a value of 18, imitating the relationship between Ether and Wei. This is the value {ERC20} uses, unless this function is overridden; NOTE: This information is only used for _display_ purposes: it in no way affects any of the arithmetic of the contract, including {IERC20-balanceOf} and {IERC20-transfer}."
      },
      "decreaseAllowance(address,uint256)": {
        "details": "Atomically decreases the allowance granted to `spender` by the caller. This is an alternative to {approve} that can be used as a mitigation for problems described in {IERC20-approve}. Emits an {Approval} event indicating the updated allowance. Requirements: - `spender` cannot be the zero address. - `spender` must have allowance for the caller of at least `subtractedValue`."
      },
      "increaseAllowance(address,uint256)": {
        "details": "Atomically increases the allowance granted to `spender` by the caller. This is an alternative to {approve} that can be used as a mitigation for problems described in {IERC20-approve}. Emits an {Approval} event indicating the updated allowance. Requirements: - `spender` cannot be the zero address."
      },
      "name()": {
        "details": "Returns the name of the token."
      },
      "symbol()": {
        "details": "Returns the symbol of the token, usually a shorter version of the name."
      },
      "totalSupply()": {
        "details": "See {IERC20-totalSupply}."
      },
      "transfer(address,uint256)": {
        "details": "See {IERC20-transfer}. Requirements: - `recipient` cannot be the zero address. - the caller must have a balance of at least `amount`."
      },
      "transferFrom(address,address,uint256)": {
        "details": "See {IERC20-transferFrom}. Emits an {Approval} event indicating the updated allowance. This is not required by the EIP. See the note at the beginning of {ERC20}. Requirements: - `sender` and `recipient` cannot be the zero address. - `sender` must have a balance of at least `amount`. - the caller must have allowance for ``sender``'s tokens of at least `amount`."
      }
    },
    "version": 1
  },
  "userdoc": {
    "kind": "user",
    "methods": {},
    "version": 1
  }
}